{
  "contractName": "flashLoan",
  "abi": [
    {
      "inputs": [
        {
          "internalType": "contract ILendingPoolAddressesProvider",
          "name": "_addressProvider",
          "type": "address"
        }
      ],
      "stateMutability": "nonpayable",
      "type": "constructor"
    },
    {
      "anonymous": false,
      "inputs": [
        {
          "indexed": false,
          "internalType": "string",
          "name": "message",
          "type": "string"
        },
        {
          "indexed": false,
          "internalType": "uint256",
          "name": "val",
          "type": "uint256"
        }
      ],
      "name": "Log",
      "type": "event"
    },
    {
      "anonymous": false,
      "inputs": [
        {
          "indexed": false,
          "internalType": "string",
          "name": "message",
          "type": "string"
        },
        {
          "indexed": false,
          "internalType": "address",
          "name": "addr",
          "type": "address"
        }
      ],
      "name": "LogAdr",
      "type": "event"
    },
    {
      "inputs": [],
      "name": "ADDRESSES_PROVIDER",
      "outputs": [
        {
          "internalType": "contract ILendingPoolAddressesProvider",
          "name": "",
          "type": "address"
        }
      ],
      "stateMutability": "view",
      "type": "function"
    },
    {
      "inputs": [],
      "name": "LENDING_POOL",
      "outputs": [
        {
          "internalType": "contract ILendingPool",
          "name": "",
          "type": "address"
        }
      ],
      "stateMutability": "view",
      "type": "function"
    },
    {
      "inputs": [
        {
          "internalType": "address",
          "name": "asset1",
          "type": "address"
        },
        {
          "internalType": "address",
          "name": "asset2",
          "type": "address"
        },
        {
          "internalType": "uint256",
          "name": "amount1",
          "type": "uint256"
        },
        {
          "internalType": "uint256",
          "name": "amount2",
          "type": "uint256"
        }
      ],
      "name": "doFlashLoan",
      "outputs": [],
      "stateMutability": "nonpayable",
      "type": "function"
    },
    {
      "inputs": [
        {
          "internalType": "address[]",
          "name": "assets",
          "type": "address[]"
        },
        {
          "internalType": "uint256[]",
          "name": "amounts",
          "type": "uint256[]"
        },
        {
          "internalType": "uint256[]",
          "name": "premiums",
          "type": "uint256[]"
        },
        {
          "internalType": "address",
          "name": "initiator",
          "type": "address"
        },
        {
          "internalType": "bytes",
          "name": "params",
          "type": "bytes"
        }
      ],
      "name": "executeOperation",
      "outputs": [
        {
          "internalType": "bool",
          "name": "",
          "type": "bool"
        }
      ],
      "stateMutability": "nonpayable",
      "type": "function"
    }
  ],
  "bytecode": "0x60c06040523480156200001157600080fd5b506040516200168838038062001688833981810160405281019062000037919062000197565b808073ffffffffffffffffffffffffffffffffffffffff1660808173ffffffffffffffffffffffffffffffffffffffff16815250508073ffffffffffffffffffffffffffffffffffffffff16630261bf8b6040518163ffffffff1660e01b8152600401602060405180830381865afa158015620000b8573d6000803e3d6000fd5b505050506040513d601f19601f82011682018060405250810190620000de9190620001fa565b73ffffffffffffffffffffffffffffffffffffffff1660a08173ffffffffffffffffffffffffffffffffffffffff168152505050506200022c565b600080fd5b600073ffffffffffffffffffffffffffffffffffffffff82169050919050565b60006200014b826200011e565b9050919050565b60006200015f826200013e565b9050919050565b620001718162000152565b81146200017d57600080fd5b50565b600081519050620001918162000166565b92915050565b600060208284031215620001b057620001af62000119565b5b6000620001c08482850162000180565b91505092915050565b620001d4816200013e565b8114620001e057600080fd5b50565b600081519050620001f481620001c9565b92915050565b60006020828403121562000213576200021262000119565b5b60006200022384828501620001e3565b91505092915050565b60805160a0516114296200025f600039600081816104a3015281816105d201526107b50152600060db01526114296000f3fe608060405234801561001057600080fd5b506004361061004c5760003560e01c80630542975c1461005157806370c3be571461006f578063920f5c841461008b578063b4dcfc77146100bb575b600080fd5b6100596100d9565b6040516100669190610856565b60405180910390f35b610089600480360381019061008491906108ef565b6100fd565b005b6100a560048036038101906100a09190610a67565b610545565b6040516100b29190610b7e565b60405180910390f35b6100c36107b3565b6040516100d09190610bba565b60405180910390f35b7f000000000000000000000000000000000000000000000000000000000000000081565b60008473ffffffffffffffffffffffffffffffffffffffff166370a08231306040518263ffffffff1660e01b81526004016101389190610be4565b602060405180830381865afa158015610155573d6000803e3d6000fd5b505050506040513d601f19601f820116820180604052508101906101799190610c14565b90508281116101bd576040517f08c379a00000000000000000000000000000000000000000000000000000000081526004016101b490610c9e565b60405180910390fd5b60008473ffffffffffffffffffffffffffffffffffffffff166370a08231306040518263ffffffff1660e01b81526004016101f89190610be4565b602060405180830381865afa158015610215573d6000803e3d6000fd5b505050506040513d601f19601f820116820180604052508101906102399190610c14565b905082811161027d576040517f08c379a000000000000000000000000000000000000000000000000000000000815260040161027490610d0a565b60405180910390fd5b6000600267ffffffffffffffff81111561029a57610299610d2a565b5b6040519080825280602002602001820160405280156102c85781602001602082028036833780820191505090505b50905086816000815181106102e0576102df610d59565b5b602002602001019073ffffffffffffffffffffffffffffffffffffffff16908173ffffffffffffffffffffffffffffffffffffffff1681525050858160018151811061032f5761032e610d59565b5b602002602001019073ffffffffffffffffffffffffffffffffffffffff16908173ffffffffffffffffffffffffffffffffffffffff16815250506000600267ffffffffffffffff81111561038657610385610d2a565b5b6040519080825280602002602001820160405280156103b45781602001602082028036833780820191505090505b50905085816000815181106103cc576103cb610d59565b5b60200260200101818152505084816001815181106103ed576103ec610d59565b5b6020026020010181815250506000600267ffffffffffffffff81111561041657610415610d2a565b5b6040519080825280602002602001820160405280156104445781602001602082028036833780820191505090505b50905060008160008151811061045d5761045c610d59565b5b60200260200101818152505060008160018151811061047f5761047e610d59565b5b602002602001018181525050600060405180602001604052806000815250905060007f000000000000000000000000000000000000000000000000000000000000000073ffffffffffffffffffffffffffffffffffffffff1663ab9c4b5d308787873088886040518863ffffffff1660e01b81526004016105069796959493929190610fba565b600060405180830381600087803b15801561052057600080fd5b505af1158015610534573d6000803e3d6000fd5b505050505050505050505050505050565b60007fdd970dd9b5bfe707922155b058a407655cb18288b807e2216442bca8ad83d6b5601660405161057791906110cc565b60405180910390a160005b8a8a90508110156107a1578a8a828181106105a05761059f610d59565b5b90506020020160208101906105b591906110fa565b73ffffffffffffffffffffffffffffffffffffffff1663095ea7b37f000000000000000000000000000000000000000000000000000000000000000089898581811061060457610603610d59565b5b905060200201358c8c8681811061061e5761061d610d59565b5b9050602002013561062f9190611156565b6040518363ffffffff1660e01b815260040161064c9291906111bb565b6020604051808303816000875af115801561066b573d6000803e3d6000fd5b505050506040513d601f19601f8201168201806040525081019061068f9190611210565b507f09381ce2c85dc100ccb28dcdc83f962d88ab0d22d2ab1c8e8d59136dd35280eb8b8b838181106106c4576106c3610d59565b5b90506020020160208101906106d991906110fa565b6040516106e69190611289565b60405180910390a17fdd970dd9b5bfe707922155b058a407655cb18288b807e2216442bca8ad83d6b589898381811061072257610721610d59565b5b905060200201356040516107369190611303565b60405180910390a17fdd970dd9b5bfe707922155b058a407655cb18288b807e2216442bca8ad83d6b587878381811061077257610771610d59565b5b90506020020135604051610786919061137d565b60405180910390a18080610799906113ab565b915050610582565b50600190509998505050505050505050565b7f000000000000000000000000000000000000000000000000000000000000000081565b600073ffffffffffffffffffffffffffffffffffffffff82169050919050565b6000819050919050565b600061081c610817610812846107d7565b6107f7565b6107d7565b9050919050565b600061082e82610801565b9050919050565b600061084082610823565b9050919050565b61085081610835565b82525050565b600060208201905061086b6000830184610847565b92915050565b600080fd5b600080fd5b6000610886826107d7565b9050919050565b6108968161087b565b81146108a157600080fd5b50565b6000813590506108b38161088d565b92915050565b6000819050919050565b6108cc816108b9565b81146108d757600080fd5b50565b6000813590506108e9816108c3565b92915050565b6000806000806080858703121561090957610908610871565b5b6000610917878288016108a4565b9450506020610928878288016108a4565b9350506040610939878288016108da565b925050606061094a878288016108da565b91505092959194509250565b600080fd5b600080fd5b600080fd5b60008083601f84011261097b5761097a610956565b5b8235905067ffffffffffffffff8111156109985761099761095b565b5b6020830191508360208202830111156109b4576109b3610960565b5b9250929050565b60008083601f8401126109d1576109d0610956565b5b8235905067ffffffffffffffff8111156109ee576109ed61095b565b5b602083019150836020820283011115610a0a57610a09610960565b5b9250929050565b60008083601f840112610a2757610a26610956565b5b8235905067ffffffffffffffff811115610a4457610a4361095b565b5b602083019150836001820283011115610a6057610a5f610960565b5b9250929050565b600080600080600080600080600060a08a8c031215610a8957610a88610871565b5b60008a013567ffffffffffffffff811115610aa757610aa6610876565b5b610ab38c828d01610965565b995099505060208a013567ffffffffffffffff811115610ad657610ad5610876565b5b610ae28c828d016109bb565b975097505060408a013567ffffffffffffffff811115610b0557610b04610876565b5b610b118c828d016109bb565b95509550506060610b248c828d016108a4565b93505060808a013567ffffffffffffffff811115610b4557610b44610876565b5b610b518c828d01610a11565b92509250509295985092959850929598565b60008115159050919050565b610b7881610b63565b82525050565b6000602082019050610b936000830184610b6f565b92915050565b6000610ba482610823565b9050919050565b610bb481610b99565b82525050565b6000602082019050610bcf6000830184610bab565b92915050565b610bde8161087b565b82525050565b6000602082019050610bf96000830184610bd5565b92915050565b600081519050610c0e816108c3565b92915050565b600060208284031215610c2a57610c29610871565b5b6000610c3884828501610bff565b91505092915050565b600082825260208201905092915050565b7f62616c31203c3d20616d6f756e74310000000000000000000000000000000000600082015250565b6000610c88600f83610c41565b9150610c9382610c52565b602082019050919050565b60006020820190508181036000830152610cb781610c7b565b9050919050565b7f62616c32203c3d20616d6f756e74320000000000000000000000000000000000600082015250565b6000610cf4600f83610c41565b9150610cff82610cbe565b602082019050919050565b60006020820190508181036000830152610d2381610ce7565b9050919050565b7f4e487b7100000000000000000000000000000000000000000000000000000000600052604160045260246000fd5b7f4e487b7100000000000000000000000000000000000000000000000000000000600052603260045260246000fd5b600081519050919050565b600082825260208201905092915050565b6000819050602082019050919050565b610dbd8161087b565b82525050565b6000610dcf8383610db4565b60208301905092915050565b6000602082019050919050565b6000610df382610d88565b610dfd8185610d93565b9350610e0883610da4565b8060005b83811015610e39578151610e208882610dc3565b9750610e2b83610ddb565b925050600181019050610e0c565b5085935050505092915050565b600081519050919050565b600082825260208201905092915050565b6000819050602082019050919050565b610e7b816108b9565b82525050565b6000610e8d8383610e72565b60208301905092915050565b6000602082019050919050565b6000610eb182610e46565b610ebb8185610e51565b9350610ec683610e62565b8060005b83811015610ef7578151610ede8882610e81565b9750610ee983610e99565b925050600181019050610eca565b5085935050505092915050565b600081519050919050565b600082825260208201905092915050565b60005b83811015610f3e578082015181840152602081019050610f23565b83811115610f4d576000848401525b50505050565b6000601f19601f8301169050919050565b6000610f6f82610f04565b610f798185610f0f565b9350610f89818560208601610f20565b610f9281610f53565b840191505092915050565b600061ffff82169050919050565b610fb481610f9d565b82525050565b600060e082019050610fcf600083018a610bd5565b8181036020830152610fe18189610de8565b90508181036040830152610ff58188610ea6565b905081810360608301526110098187610ea6565b90506110186080830186610bd5565b81810360a083015261102a8185610f64565b905061103960c0830184610fab565b98975050505050505050565b7f61626f6c00000000000000000000000000000000000000000000000000000000600082015250565b600061107b600483610c41565b915061108682611045565b602082019050919050565b6000819050919050565b60006110b66110b16110ac84611091565b6107f7565b6108b9565b9050919050565b6110c68161109b565b82525050565b600060408201905081810360008301526110e58161106e565b90506110f460208301846110bd565b92915050565b6000602082840312156111105761110f610871565b5b600061111e848285016108a4565b91505092915050565b7f4e487b7100000000000000000000000000000000000000000000000000000000600052601160045260246000fd5b6000611161826108b9565b915061116c836108b9565b9250827fffffffffffffffffffffffffffffffffffffffffffffffffffffffffffffffff038211156111a1576111a0611127565b5b828201905092915050565b6111b5816108b9565b82525050565b60006040820190506111d06000830185610bd5565b6111dd60208301846111ac565b9392505050565b6111ed81610b63565b81146111f857600080fd5b50565b60008151905061120a816111e4565b92915050565b60006020828403121561122657611225610871565b5b6000611234848285016111fb565b91505092915050565b7f746f6b656e000000000000000000000000000000000000000000000000000000600082015250565b6000611273600583610c41565b915061127e8261123d565b602082019050919050565b600060408201905081810360008301526112a281611266565b90506112b16020830184610bd5565b92915050565b7f626f72726f776564000000000000000000000000000000000000000000000000600082015250565b60006112ed600883610c41565b91506112f8826112b7565b602082019050919050565b6000604082019050818103600083015261131c816112e0565b905061132b60208301846111ac565b92915050565b7f6665650000000000000000000000000000000000000000000000000000000000600082015250565b6000611367600383610c41565b915061137282611331565b602082019050919050565b600060408201905081810360008301526113968161135a565b90506113a560208301846111ac565b92915050565b60006113b6826108b9565b91507fffffffffffffffffffffffffffffffffffffffffffffffffffffffffffffffff82036113e8576113e7611127565b5b60018201905091905056fea26469706673582212205ca0c60caa340cfb893f759b323d832116ffd351f6bb1b043b651838d092ac6964736f6c634300080d0033",
  "immutableReferences": {
    "991": [
      {
        "length": 32,
        "start": 219
      }
    ],
    "994": [
      {
        "length": 32,
        "start": 1187
      },
      {
        "length": 32,
        "start": 1490
      },
      {
        "length": 32,
        "start": 1973
      }
    ]
  },
  "source": "// SPDX-License-Identifier: MIT\r\npragma solidity >=0.4.22 <0.9.0;\r\n\r\nimport \"./interfaces/FlashLoanReceiverBase.sol\";\r\n\r\ncontract flashLoan is FlashLoanReceiverBase {\r\n    event Log(string message, uint256 val);\r\n    event LogAdr(string message, address addr);\r\n\r\n    constructor(ILendingPoolAddressesProvider _addressProvider)\r\n        public\r\n        FlashLoanReceiverBase(_addressProvider)\r\n    {}\r\n\r\n    function doFlashLoan(\r\n        address asset1,\r\n        address asset2,\r\n        uint256 amount1,\r\n        uint256 amount2\r\n    ) external {\r\n        // checking the balance of contract (increase the balance of contract before running Flash Loan )\r\n        uint256 bal1 = IERC20(asset1).balanceOf(address(this));\r\n        require(bal1 > amount1, \"bal1 <= amount1\");\r\n\r\n        uint256 bal2 = IERC20(asset2).balanceOf(address(this));\r\n        require(bal2 > amount2, \"bal2 <= amount2\");\r\n\r\n        address[] memory assets = new address[](2);\r\n        assets[0] = asset1;\r\n        assets[1] = asset2;\r\n\r\n        uint256[] memory amounts = new uint256[](2);\r\n        amounts[0] = amount1;\r\n        amounts[1] = amount2;\r\n\r\n        uint256[] memory modes = new uint256[](2);\r\n        // no debt for both tokens : pay all loaned\r\n        modes[0] = 0;\r\n        modes[1] = 0;\r\n\r\n        bytes memory params = \"\"; // extra data to pass abi.encode(...)\r\n        uint16 referralCode = 0;\r\n\r\n        LENDING_POOL.flashLoan(\r\n            address(this), // receiver\r\n            assets,\r\n            amounts,\r\n            modes,\r\n            address(this), // onBehalfOf\r\n            params,\r\n            referralCode\r\n        );\r\n    }\r\n\r\n    function executeOperation(\r\n        address[] calldata assets,\r\n        uint256[] calldata amounts,\r\n        uint256[] calldata premiums,\r\n        address initiator,\r\n        bytes calldata params\r\n    ) external override returns (bool) {\r\n        emit Log(\"abol\" , 22) ;\r\n        for (uint256 i = 0; i < assets.length; i++) {\r\n            IERC20(assets[i]).approve(\r\n                address(LENDING_POOL),\r\n                amounts[i] + premiums[i]\r\n            );\r\n\r\n            emit LogAdr(\"token\", assets[i]);\r\n            emit Log(\"borrowed\", amounts[i]);\r\n            emit Log(\"fee\", premiums[i]);\r\n        }\r\n        return true;\r\n    }\r\n}\r\n",
  "sourcePath": "C:\\Users\\HP\\Documents\\DApp\\Aave FlashLoan\\contracts\\flashLoan.sol",
  "compiler": {
    "name": "solc",
    "version": "0.8.13+commit.abaa5c0e.Emscripten.clang"
  },
  "schemaVersion": "3.4.6",
  "updatedAt": "2022-10-08T03:52:10.606Z",
  "devdoc": {
    "kind": "dev",
    "methods": {},
    "version": 1
  },
  "userdoc": {
    "kind": "user",
    "methods": {},
    "version": 1
  }
}